{
  "contractName": "EventContract",
  "abi": [
    {
      "inputs": [
        {
          "internalType": "uint256",
          "name": "",
          "type": "uint256"
        }
      ],
      "name": "events",
      "outputs": [
        {
          "internalType": "address",
          "name": "admin",
          "type": "address"
        },
        {
          "internalType": "string",
          "name": "name",
          "type": "string"
        },
        {
          "internalType": "uint256",
          "name": "date",
          "type": "uint256"
        },
        {
          "internalType": "uint256",
          "name": "price",
          "type": "uint256"
        },
        {
          "internalType": "uint256",
          "name": "ticketCount",
          "type": "uint256"
        },
        {
          "internalType": "uint256",
          "name": "ticketRemaining",
          "type": "uint256"
        }
      ],
      "stateMutability": "view",
      "type": "function",
      "constant": true
    },
    {
      "inputs": [],
      "name": "nextId",
      "outputs": [
        {
          "internalType": "uint256",
          "name": "",
          "type": "uint256"
        }
      ],
      "stateMutability": "view",
      "type": "function",
      "constant": true
    },
    {
      "inputs": [
        {
          "internalType": "address",
          "name": "",
          "type": "address"
        },
        {
          "internalType": "uint256",
          "name": "",
          "type": "uint256"
        }
      ],
      "name": "tickets",
      "outputs": [
        {
          "internalType": "uint256",
          "name": "",
          "type": "uint256"
        }
      ],
      "stateMutability": "view",
      "type": "function",
      "constant": true
    },
    {
      "inputs": [
        {
          "internalType": "string",
          "name": "name",
          "type": "string"
        },
        {
          "internalType": "uint256",
          "name": "date",
          "type": "uint256"
        },
        {
          "internalType": "uint256",
          "name": "price",
          "type": "uint256"
        },
        {
          "internalType": "uint256",
          "name": "ticketCount",
          "type": "uint256"
        }
      ],
      "name": "createEvent",
      "outputs": [],
      "stateMutability": "nonpayable",
      "type": "function"
    },
    {
      "inputs": [
        {
          "internalType": "uint256",
          "name": "id",
          "type": "uint256"
        },
        {
          "internalType": "uint256",
          "name": "quantity",
          "type": "uint256"
        }
      ],
      "name": "buyTicket",
      "outputs": [],
      "stateMutability": "payable",
      "type": "function",
      "payable": true
    },
    {
      "inputs": [
        {
          "internalType": "uint256",
          "name": "eventId",
          "type": "uint256"
        },
        {
          "internalType": "uint256",
          "name": "quantity",
          "type": "uint256"
        },
        {
          "internalType": "address",
          "name": "to",
          "type": "address"
        }
      ],
      "name": "transferTicket",
      "outputs": [],
      "stateMutability": "nonpayable",
      "type": "function"
    }
  ],
  "bytecode": "0x608060405234801561001057600080fd5b50610a51806100206000396000f3fe6080604052600436106100555760003560e01c80630374ab0b1461005a5780630b7914301461007c578063298ec208146100b757806361b8ce8c146100ca578063dae7a13c146100ec578063f086a09b1461010c575b600080fd5b34801561006657600080fd5b5061007a610075366004610646565b61012c565b005b34801561008857600080fd5b5061009c6100973660046106c9565b61026f565b6040516100ae96959493929190610736565b60405180910390f35b61007a6100c53660046106e1565b610336565b3480156100d657600080fd5b506100df610447565b6040516100ae9190610958565b3480156100f857600080fd5b506100df61010736600461061d565b61044d565b34801561011857600080fd5b5061007a610127366004610702565b61046a565b4283116101545760405162461bcd60e51b815260040161014b90610897565b60405180910390fd5b600081116101745760405162461bcd60e51b815260040161014b9061090a565b6040518060c00160405280336001600160a01b0316815260200186868080601f0160208091040260200160405190810160405280939291908181526020018383808284376000920182905250938552505050602080830187905260408084018790526060840186905260809093018590526002548252818152919020825181546001600160a01b0319166001600160a01b03909116178155828201518051919261022692600185019290910190610568565b506040820151600280830191909155606083015160038301556080830151600483015560a0909201516005909101558054906000610263836109ea565b91905055505050505050565b600060208190529081526040902080546001820180546001600160a01b03909216929161029b906109af565b80601f01602080910402602001604051908101604052809291908181526020018280546102c7906109af565b80156103145780601f106102e957610100808354040283529160200191610314565b820191906000526020600020905b8154815290600101906020018083116102f757829003601f168201915b5050505050908060020154908060030154908060040154908060050154905086565b60008281526020819052604090206002015482906103665760405162461bcd60e51b815260040161014b90610830565b600083815260208190526040902060020154839042106103985760405162461bcd60e51b815260040161014b90610802565b600084815260208190526040902060038101546103b6908590610979565b34146103d45760405162461bcd60e51b815260040161014b906107b5565b83816005015410156103f85760405162461bcd60e51b815260040161014b90610867565b8381600501600082825461040c9190610998565b90915550503360009081526001602090815260408083208884529091528120805486929061043b908490610961565b90915550505050505050565b60025481565b600160209081526000928352604080842090915290825290205481565b600083815260208190526040902060020154839061049a5760405162461bcd60e51b815260040161014b90610830565b600084815260208190526040902060020154849042106104cc5760405162461bcd60e51b815260040161014b90610802565b3360009081526001602090815260408083208884529091529020548411156105065760405162461bcd60e51b815260040161014b906108df565b33600090815260016020908152604080832088845290915281208054869290610530908490610998565b90915550506001600160a01b03831660009081526001602090815260408083208884529091528120805486929061043b908490610961565b828054610574906109af565b90600052602060002090601f01602090048101928261059657600085556105dc565b82601f106105af57805160ff19168380011785556105dc565b828001600101855582156105dc579182015b828111156105dc5782518255916020019190600101906105c1565b506105e89291506105ec565b5090565b5b808211156105e857600081556001016105ed565b80356001600160a01b038116811461061857600080fd5b919050565b6000806040838503121561062f578182fd5b61063883610601565b946020939093013593505050565b60008060008060006080868803121561065d578081fd5b853567ffffffffffffffff80821115610674578283fd5b818801915088601f830112610687578283fd5b813581811115610695578384fd5b8960208285010111156106a6578384fd5b60209283019a909950918801359760408101359750606001359550909350505050565b6000602082840312156106da578081fd5b5035919050565b600080604083850312156106f3578182fd5b50508035926020909101359150565b600080600060608486031215610716578283fd5b833592506020840135915061072d60408501610601565b90509250925092565b600060018060a01b0388168252602060c08184015287518060c0850152825b818110156107715789810183015185820160e001528201610755565b81811115610782578360e083870101525b50604084019790975250506060810193909352608083019190915260a082015260e0601f909201601f1916010192915050565b6020808252602d908201527f65746865722073656e74206d75737420626520657175616c20746f20746f746160408201526c1b081d1a58dad95d0818dbdcdd609a1b606082015260800190565b6020808252601490820152736576656e74206d7573742062652061637469766560601b604082015260600190565b60208082526019908201527f74686973206576656e7420646f6573206e6f7420657869737400000000000000604082015260600190565b6020808252601690820152751b9bdd08195b9bdd59da081d1a58dad95d081b19599d60521b604082015260600190565b60208082526028908201527f63616e206f6e6c79206f7267616e697a65206576656e74206174206120667574604082015267757265206461746560c01b606082015260800190565b6020808252601190820152701b9bdd08195b9bdd59da081d1a58dad95d607a1b604082015260600190565b6020808252602e908201527f63616e206f6e6c79206f7267616e697a65206576656e7420776974682061742060408201526d1b19585cdd080c481d1a58dad95d60921b606082015260800190565b90815260200190565b6000821982111561097457610974610a05565b500190565b600081600019048311821515161561099357610993610a05565b500290565b6000828210156109aa576109aa610a05565b500390565b6002810460018216806109c357607f821691505b602082108114156109e457634e487b7160e01b600052602260045260246000fd5b50919050565b60006000198214156109fe576109fe610a05565b5060010190565b634e487b7160e01b600052601160045260246000fdfea2646970667358221220857ae59bf8782f84ebb6f5f7071e7238c47f1a8a55585281935112279a841f1a64736f6c63430008000033",
  "immutableReferences": {},
  "source": "// SPDX-License-Identifier: MIT \r\npragma solidity ^0.8.0;\r\n\r\ncontract EventContract {\r\n  struct Event {\r\n    address admin;\r\n    string name;\r\n    uint date;\r\n    uint price;\r\n    uint ticketCount;\r\n    uint ticketRemaining;\r\n  }\r\n  mapping(uint => Event) public events;\r\n  mapping(address => mapping(uint => uint)) public tickets;\r\n  uint public nextId;\r\n\r\n  function createEvent(\r\n    string calldata name,\r\n    uint date,\r\n    uint price,\r\n    uint ticketCount) \r\n    external {\r\n    require(date > block.timestamp, 'can only organize event at a future date');\r\n    require(ticketCount > 0, 'can only organize event with at least 1 ticket');\r\n    events[nextId] = Event(\r\n      msg.sender, \r\n      name, \r\n      date, \r\n      price, \r\n      ticketCount,\r\n      ticketCount\r\n    );\r\n    nextId++;\r\n  }\r\n\r\n  function buyTicket(uint id, uint quantity) \r\n    eventExist(id) \r\n    eventActive(id)\r\n    payable\r\n    external {\r\n    Event storage _event = events[id];\r\n    require(msg.value == (_event.price * quantity), 'ether sent must be equal to total ticket cost'); \r\n    require(_event.ticketRemaining >= quantity, 'not enough ticket left');\r\n    _event.ticketRemaining -= quantity;\r\n    tickets[msg.sender][id] += quantity;\r\n  }\r\n\r\n  function transferTicket(uint eventId, uint quantity, address to) \r\n    eventExist(eventId)\r\n    eventActive(eventId)\r\n    external {\r\n      require(tickets[msg.sender][eventId] >= quantity, 'not enough ticket');\r\n      tickets[msg.sender][eventId] -= quantity;\r\n      tickets[to][eventId] += quantity;\r\n  }\r\n\r\n  modifier eventExist(uint id) {\r\n    require(events[id].date != 0, 'this event does not exist');\r\n    _;\r\n  }\r\n  modifier eventActive(uint id) {\r\n    require(block.timestamp < events[id].date, 'event must be active');\r\n    _;\r\n  }\r\n}",
  "sourcePath": "C:\\Users\\cassi\\Documents\\DApps\\EventContract\\contracts\\EventContract.sol",
  "compiler": {
    "name": "solc",
    "version": "0.8.0+commit.c7dfd78e.Emscripten.clang"
  },
  "schemaVersion": "3.4.16",
  "updatedAt": "2023-11-21T21:13:42.810Z",
  "networkType": "ethereum",
  "devdoc": {
    "kind": "dev",
    "methods": {},
    "version": 1
  },
  "userdoc": {
    "kind": "user",
    "methods": {},
    "version": 1
  }
}